:020000040800F2
:10000000A808002045010008592A00085B2A0008BA
:100010005F2A0008632A0008672A00080000000021
:100020000000000000000000000000006B2A000833
:100030006D2A0008000000006F2A0008712A0008DD
:100040005F0100085F0100085F0100085F01000810
:100050005F0100085F0100085F0100085F01000800
:100060005F0100085F0100085F0100085F010008F0
:100070005F0100085F0100085F0100085F010008E0
:100080005F010008933800085F0100085F01000865
:100090005F0100085F0100085F0100085F010008C0
:1000A0005F0100085F0100085F0100085F010008B0
:1000B0005F0100085F0100085F0100085F010008A0
:1000C0005F0100085F0100085F0100085F01000890
:1000D0005F0100085F010008073800085F010008A1
:1000E0005F0100085F0100085F0100085F01000870
:1000F0005F0100085F0100085F0100085F01000860
:100100005F0100085F0100087B3E00085F010008F6
:100110005F0100085F0100088B3500087B3D000887
:100120005F0100085F0100085F0100085F0100082F
:10013000DFF80CD004F082F8004800472B290008B3
:10014000A80800200648804706480047FEE7FEE76B
:10015000FEE7FEE7FEE7FEE7FEE7FEE7FEE7FEE777
:1001600045020008310100080CB500200190009004
:100170006B48006840F480306949086000BF6848F7
:10018000006800F4003000900198401C0190009835
:1001900018B90198B0F5A06FF1D16148006810F46A
:1001A000003F02D00120009001E000200090009864
:1001B000012842D15B48006840F0100059490860AE
:1001C0000846006820F0030008600846006840F018
:1001D000020008605248406851494860084640683B
:1001E00048600846406840F48060486008464068BF
:1001F00020F47C1048600846406840F4E8104860ED
:100200000846006840F08070086000BF44480068FD
:1002100010F0007FFAD04248406820F003004049C7
:1002200048600846406840F00200486000BF3C4813
:10023000406800F00C000828F9D10CBD10B5FFF79C
:1002400093FF10BD10B53648006840F001003449F6
:10025000086008464068344908403149486008460B
:100260000068324908402E4908600846006820F4BA
:10027000802008600846406820F4FE0048604FF483
:100280001F008860FFF7DAFF4FF000602849086020
:1002900010BD10B5002100200022214B5B6803F047
:1002A0000C0121B1042906D0082928D107E0214BEF
:1002B000214C236027E01F4B1F4C236023E0184B89
:1002C0005B6803F47010164B5B6803F48032022302
:1002D00003EB904022B9194B4343174C23600DE0C8
:1002E0000F4B5B6813F4003F04D0144B4343124C94
:1002F000236003E00F4B43430F4C236003E00D4B9F
:100300000D4C236000BF00BF054B5B68C3F30313B4
:100310000B4CE15C084B1B68CB40074C236010BDC5
:1003200000100240002002400000FFF8FFFFF6FE30
:1003300008ED00E000127A000000002000093D00F6
:100340000400002010B50446CA48844208D10121A7
:10035000042000F027FB0021042000F023FB46E0EE
:10036000C548844208D10121082000F01BFB002170
:10037000082000F017FB3AE0C048844208D1012170
:10038000102000F00FFB0021102000F00BFB2EE0EE
:10039000BB48844208D10121202000F003FB00214A
:1003A000202000F0FFFA22E0B648844208D1012163
:1003B000402000F0F7FA0021402000F0F3FA16E0A8
:1003C000B148844208D10121802000F0EBFA0021DD
:1003D000802000F0E7FA0AE0AC48844207D101210E
:1003E000801500F0DFFA0021A01500F0DBFA10BD47
:1003F00010B50121084600F0D5FA0021012000F0D7
:10040000D1FA10BD2DE9F04102460025002600205A
:1004100000230024002791F803C00CF00F0591F889
:1004200003C01CF0100F03D091F802C04CEA050580
:1004300091F800C0BCF1000F31D0146800202BE00F
:100440004FF0010C0CFA00F3B1F800C00CEA0306FF
:100450009E4220D183004FF00F0C0CFA03F7BC43EF
:1004600005FA03FC4CEA040491F803C0BCF1280F20
:1004700006D14FF0010C0CFA00FCC2F814C00AE0DF
:1004800091F803C0BCF1480F05D14FF0010C0CFAF4
:1004900000FCC2F810C0401C0828D1D31460B1F889
:1004A00000C0BCF1FF0F34DD546800202EE000F1E5
:1004B000080C4FF0010808FA0CF3B1F800C00CEA80
:1004C00003069E4221D183004FF00F0C0CFA03F774
:1004D000BC4305FA03FC4CEA040491F803C0BCF1E8
:1004E000280F05D100F1080C08FA0CF8C2F81480A6
:1004F00091F803C0BCF1480F07D100F1080C4FF090
:10050000010808FA0CF8C2F81080401C0828CED365
:100510005460BDE8F0814FF6FF71018002218170C7
:100520000421C17070470246002093680B4201D03D
:10053000012000E0002070470146886880B27047C3
:1005400002460020D3680B4201D0012000E00020C9
:1005500070470146C86880B27047016170474161C9
:1005600070470AB1016100E041617047C1607047A6
:100570004FF480320A4382618161826182698269BB
:10058000704702460020424B18684FF680731840AF
:1005900040EA021008433E4B186070473D49C8616D
:1005A0007047F0B50A46002300240021002500F022
:1005B0000046B6F1004F02D1354EF16901E0344EEC
:1005C0007168C0F3034583B200F44016B6F5401FCE
:1005D00008D121F070612E4E766826F070662C4F9F
:1005E0007E6012E000F48016B6F5801F06D1032667
:1005F00006FA05F4A14341F0706106E0460D3601AC
:1006000003FA06F6B14341F0706122B1460D36019E
:1006100003FA06F6314300F00046B6F1004F02D16E
:100620001B4EF16101E01A4E7160F0BD30B5002241
:100630008B071C0F0F2303FA04F2154B08338C10A1
:1006400053F824309343124C08348D1044F825306D
:1006500023468C1053F824308C07240F00FA04F43E
:1006600023430B4C08348D1044F8253030BD0A4923
:100670000860704700080140000C01400010014074
:100680000014014000180140001C014000200140FE
:100690000000014000002042DC002042DD480068EC
:1006A00040F00100DB49086008464068DA4908402C
:1006B000D849486008460068D8490840D5490860CC
:1006C0000846006820F4802008600846406820F44E
:1006D000FE0048604FF41F0088607047CD490968EC
:1006E00021F48031CB4A11601146096821F4802140
:1006F0001160B0F5803F03D0B0F5802F0ED106E039
:10070000C449096841F48031C24A116007E0C14917
:10071000096841F4A021BF4A116000E000BF00BF9A
:10072000704710B501460022002300204A11012A1B
:1007300002D1B84C236806E0022A02D1B54C236AE4
:1007400001E0B44C636A01F01F02012494401C4292
:1007500001D0012000E0002010BD38B5002000903D
:100760000024002500BF3120FFF7DBFF054600987D
:10077000401C00900098B0F5A06F01D0002DF2D081
:100780003120FFF7CEFF08B1012400E0002420460D
:1007900038BD014600209F4A106820F0F80040EA6A
:1007A000C100106070479E490860704702460020F3
:1007B000984B586820F47C1042EA01031843954B8B
:1007C0005860704796490866704701460020914A74
:1007D000506820F003000843506070478D4840681F
:1007E00000F00C007047014600208A4A506820F053
:1007F000F00008435060704701460020854A506869
:1008000020F4E06008435060704701460020814AB0
:10081000506820F4605040EAC1005060704729B130
:100820007C4A527A02437B4B5A7204E0794A527AEC
:100830008243784B5A7270477A4908607047014684
:100840000020744A506820F44040084350607047CC
:100850000021754A11706F4A82F82010012802D0D9
:10086000042808D103E001216F4A117004E005213A
:100870006D4A117000E000BF00BF70476B4908600F
:1008800070476449096A0143624A116270476749C7
:1008900044390860704730B500210022002400234D
:1008A0005C4D6D6805F00C0121B1042905D00829C3
:1008B00023D105E05E4D056022E05D4D05601FE03F
:1008C000544D6D6805F47012524D6D6805F4803416
:1008D000022505EB92421CB9564D554305600BE0CD
:1008E0004C4D6D6815F4003F03D0524D55430560E3
:1008F00002E04F4D5543056002E04D4D056000BFDD
:1009000000BF444D6D6805F0F00109094A4D6B5C6C
:100910000568DD4045603F4D6D6805F4E061090AFA
:10092000454D6B5C4568DD4085603A4D6D6805F46A
:100930006051C90A404D6B5C4568DD40C560354D6E
:100940006D6805F44041890B3C4D6B5CC568B5FB97
:10095000F3F5056130BD29B12E4A526902432D4B92
:100960005A6104E02B4A526982432A4B5A6170470C
:1009700029B1284A92690243264B9A6104E0254A2C
:1009800092698243234B9A61704729B1214AD26907
:100990000243204BDA6104E01E4AD26982431D4BB8
:1009A000DA61704729B11B4AD2680243194BDA60F9
:1009B00004E0184AD2688243164BDA60704729B1C6
:1009C000144A12690243134B1A6104E0114A126976
:1009D0008243104B1A6170471449403908607047D0
:1009E0000F49C86470470B49C87170470948406A8D
:1009F00040F0807007494862704701460020054A70
:100A000092680A4201D0012000E0002070470149AD
:100A100088727047001002400000FFF8FFFFF6FEEA
:100A200000004242D800424220100240800442426C
:100A300000127A0000093D0014000020240000206C
:100A400010B50446FB48844209D101218803FFF711
:100A5000A9FF00214FF48040FFF7A4FF32E0F648E1
:100A6000844209D101214804FFF7A9FF00214FF476
:100A70000030FFF7A4FF25E0F048844209D10121AE
:100A80008804FFF79CFF00214FF48020FFF797FFB9
:100A900018E0EB48844209D10121C804FFF78FFF19
:100AA00000214FF40020FFF78AFF0BE0E548844265
:100AB00008D101210805FFF782FF00214FF48010C3
:100AC000FFF77DFF10BD2DE9F04786B005460E46C5
:100AD0000024A24600BFA1460027B08900B100BF94
:100AE0002F462C8A4CF6FF700440F08804432C8279
:100AF000AC894EF6F3100440B088318908437189FF
:100B000008430443AC81AC8A4FF6FF400440B089EF
:100B10000443AC8201A8FFF7BEFEC648874202D15B
:100B2000DDF810A001E0DDF80CA0A88910F4004F5A
:100B300008D00AEBCA0000EB0A1031684900B0FB8C
:100B4000F1F807E00AEBCA0000EB0A1031688900EF
:100B5000B0FBF1F86420B8FBF0F004012009642137
:100B600001FB1089A88910F4004F08D0322000EB57
:100B7000C900B0FBF1F000F00700044308E03220A8
:100B800000EB09106421B0FBF1F000F00F0004430A
:100B90002C8106B0BDE8F0874FF4165101600021AA
:100BA0008180C18001810C214181002181817047B8
:100BB00010B502460020108A4FF2FF0318400B8840
:100BC0004C8823438C882343CC88234318431082CA
:100BD00010BD0021018041808180C180704721B11A
:100BE000828942F40052828104E082894DF6FF73CB
:100BF0001A4082817047F0B5034600240026002584
:100C00000020A1F510676A3F00D100BF1846C1F36C
:100C1000421401F01F06012707FA06F5012C01D145
:100C20000C3004E0022C01D1103000E014301AB175
:100C300007682F43076002E00768AF430760F0BD15
:100C40001AB1838A0B43838202E0838A8B438382B7
:100C50007047028A4FF6F0731A400282028A0A43F2
:100C60000282704782894FF2FF731A408281828923
:100C70000A438281704721B1828942F00202828157
:100C800004E082894FF6FD731A4082817047028A20
:100C90004FF6DF731A400282028A0A4302827047CB
:100CA00021B1028A42F48042028204E0028A4BF6B9
:100CB000FF731A4002827047C1F3080282807047B6
:100CC00001468888C0F308007047818941F001011E
:100CD00081817047028BD2B20283028B42EA0122E9
:100CE00002837047028B02F47F420283028B0A4325
:100CF0000283704721B1828A42F02002828204E09E
:100D0000828A4FF6DF731A408282704721B1828A4D
:100D100042F01002828204E0828A4FF6EF731A409A
:100D20008282704721B1828A42F00802828204E006
:100D3000828A4FF6F7731A408282704721B1828906
:100D400042F40042828103E08289C2F30E02828172
:100D5000704721B1828A42F40062828204E0828A72
:100D60004FF2FF731A4082827047828A4FF6FB73FC
:100D70001A408282828A0A438282704721B1828A23
:100D800042F00202828204E0828A4FF6FD731A402A
:100D90008282704702460020B1F5007F00D100BF7B
:100DA00013880B4201D0012000E00020704701F4BD
:100DB0000072B2F5007F00D100BFCA4302807047C5
:100DC00070B502460024002300250020A1F510661E
:100DD0006A3E00D100BFC1F3421501F01F03012696
:100DE00006FA03F3012D02D19689334006E0022D65
:100DF00002D1168A334001E0968A33400C12012654
:100E000006FA04F41688344013B10CB1012000E056
:100E1000002070BD10B500220023A1F510646A3CCB
:100E200000D100BF0A1201249440A3B2DC43048025
:100E300010BD000000380140004400400048004060
:100E4000004C00400050004031490143314A1160DC
:100E5000704770B5002100230F22C4780CB32D4CCD
:100E6000246804F4E064C4F5E064210AC1F10403D9
:100E7000CA40447804FA03F18478144021430901FC
:100E8000254C0678A155047804F01F050124AC40D8
:100E900005786D114FF0E02606EB8505C5F8004199
:100EA00009E0047804F01F050124AC401B4D0678CE
:100EB000761145F8264070BD194A0A400243154B89
:100EC0001B1F1A60704739B1124A121D1268024383
:100ED000104B1B1D1A6006E00E4A121D1268824359
:100EE0000C4B1B1D1A607047042808D14FF0E021FD
:100EF000096941F004014FF0E022116107E04FF071
:100F0000E021096921F004014FF0E02211617047EE
:100F10000000FA050CED00E000E400E080E100E0F4
:100F200080FFFF1F10B50446FA48844208D1012112
:100F30004015FFF737FD00216015FFF733FD17E07F
:100F4000F548844208D101210015FFF72BFD00214F
:100F50002015FFF727FD0BE0F048844208D101215E
:100F6000C803FFF71FFD00214FF40040FFF71AFDF3
:100F700010BD30B50246002000235068E84C2040E8
:100F80000D790C6844EA0524204350609068E54CD4
:100F90002040D1E902542C434D7944EA45042043D2
:100FA0009060D06A20F470000C7C641EE4B223438D
:100FB00040EA0350D06230BD0021016001714171EF
:100FC0008160C16001210174704721B1826842F0E3
:100FD0000102826003E0826822F0010282607047B1
:100FE00021B1826842F48072826003E0826822F458
:100FF00080728260704710B50023CBB21AB144688A
:101000001C43446002E044689C43446010BD816816
:1010100041F0080181607047014600208A6812F0A3
:10102000080F01D0012000E000207047816841F0E6
:10103000040181607047014600208A6812F0040FA5
:1010400001D0012000E00020704721B1826842F405
:10105000A002826003E0826822F4A00282607047EE
:10106000014600208A6812F4800F01D0012000E0C0
:101070000020704710B50A4600210023416821F482
:101080006041531E41EA4331416010BD21B14268C5
:1010900042F40062426003E0426822F4006242606F
:1010A0007047F0B504460D4600200021092D11DDE2
:1010B000E068A5F10A0606EB4607072606FA07F1DF
:1010C0008843A5F10A0606EB460603FA06F1084333
:1010D000E0600CE0206905EB4507072606FA07F1FA
:1010E000884305EB450603FA06F108432061072A09
:1010F0000FDA606B561E06EB86071F2606FA07F10D
:101100008843561E06EB860605FA06F1084360631F
:1011100022E00D2A0FDA206BD61F06EB86071F266A
:1011200006FA07F18843D61F06EB860605FA06F194
:101130000843206310E0E06AA2F10D0606EB860783
:101140001F2606FA07F18843A2F10D0606EB860674
:1011500005FA06F10843E062F0BD21B1826842F46D
:101160008012826003E0826822F4801282607047FD
:101170000146C86C80B2704766484C3000687047C2
:1011800021B1426842F48062426003E0426822F486
:1011900080624260704721B1426842F480524260EE
:1011A00003E0426822F48052426070470A46002100
:1011B000816821F4E04111438160704721B1826868
:1011C00042F40042826003E0826822F400428260BE
:1011D000704721B1826842F40212826003E08268A3
:1011E00022F4021282607047014600208A6812F4DD
:1011F000001F01D0012000E000207047F0B5044638
:101200001546002000220026092911DDE068A1F121
:101210000A0707EB470C072707FA0CF29043A1F1E6
:101220000A0707EB470703FA07F21043E0600CE0F8
:10123000206901EB410C072707FA0CF2904301EB00
:10124000410703FA07F210432061A06BC0F3015677
:10125000EF1C06F1010CA7EB0C0707EB870C1F270F
:1012600007FA0CF29043EF1C06F1010CA7EB0C07F8
:1012700007EB870701FA07F21043A063F0BD10B532
:101280000A4600210023816B21F44011531E41EADC
:101290000351816310BD08B5002300930090009BAB
:1012A0000B440093009B1A6008BD08B5024600205D
:1012B0000090009201F12800009B184400900098D3
:1012C000006880B208BD0A4600214168164B1940EB
:1012D0001143416070474162826270470A460021B3
:1012E000416821F01F0111434160704740B1094935
:1012F0000831096841F40001064A0832116007E02C
:1013000004490831096821F40001024A08321160D9
:10131000704700000024014000280140003C0140CB
:10132000FFFEF0FFFDF7F1FFFFFD3FFF024600204B
:1013300013680B4201D0012000E000207047CA432F
:101340000260704770B502460020002300240B1293
:101350005568CEB205EA060415681D4202D00CB1EC
:10136000012000E0002070BD00220A12D343036078
:101370007047000001684FF6FE72114001600021C5
:10138000016041608160C1608C49884208D18B490D
:101390000839496841F00F01884A083A51608AE0EB
:1013A00086491431884208D184490839496841F096
:1013B000F001824A083A51607DE080492831884234
:1013C00008D17E490839496841F470617B4A083A7E
:1013D000516070E079493C31884208D17749083939
:1013E000496841F47041754A083A516063E07349B5
:1013F0005031884208D171490839496841F4702157
:101400006E4A083A516056E06C496431884208D10E
:101410006A490839496841F47001684A083A5160DC
:1014200049E066497831884208D1644908394968F9
:1014300041F07061614A083A51603CE0604988427D
:1014400006D1011F096841F00F01021F116032E04F
:101450005B491431884208D15949091F096841F094
:10146000F001574A121F116025E055492831884282
:1014700008D15349091F096841F47061504A121F8D
:10148000116018E04E493C31884208D14C49091F8F
:10149000096841F470414A4A121F11600BE0484943
:1014A0005031884207D14649091F096841F470212B
:1014B000434A121F1160704710B50022026847F6B8
:1014C000F0739A430C6A8B6823430C6923434C697D
:1014D00023438C692343CC6923434C6A23438C6A9E
:1014E00023431A430260CB6843600B6883604B68F8
:1014F000C36010BD0021016041608160C160016175
:1015000041618161C161016241628162704721B1C3
:10151000026842F00102026004E002684FF6FE73C6
:101520001A40026070471AB103680B43036002E07F
:1015300003688B4303607047416070470146486809
:1015400080B2704701460020002211F0805F03D076
:101550001B4B083B1A6802E0184B083B1A680A420A
:1015600001D0012000E00020704710F0805F03D020
:101570001349091F086002E01049083948607047A4
:1015800001460020002211F0805F03D00C4B083B85
:101590001A6802E0094B083B1A680A4201D0012090
:1015A00000E00020704710F0805F03D00449091F5D
:1015B000086002E0014908394860704708000240AD
:1015C0000804024010B50446FE48844208D10121B7
:1015D000C014FFF7E7F90021E014FFF7E3F9C4E0D6
:1015E000B4F1804F08D101210846FFF7E8F9002146
:1015F0000120FFF7E4F9B8E0F348844208D1012163
:101600000220FFF7DCF900210220FFF7D8F9ACE057
:10161000EE48844208D101210420FFF7D0F90021CF
:101620000420FFF7CCF9A0E0E948844208D1012169
:101630000820FFF7C4F900210820FFF7C0F994E063
:10164000E448844208D101211020FFF7B8F90021B5
:101650001020FFF7B4F988E0DF48844208D1012167
:101660002020FFF7ACF900212020FFF7A8F97CE04B
:10167000DA48844208D101214014FFF793F9002190
:101680006014FFF78FF970E0D548844209D1012139
:10169000C804FFF787F900214FF40020FFF782F913
:1016A00063E0D048844209D101210805FFF77AF9A7
:1016B00000214FF48010FFF775F956E0CA488442C4
:1016C00009D101214805FFF76DF900214FF4001001
:1016D000FFF768F949E0C548844208D1012140205C
:1016E000FFF76DF900214020FFF769F93DE0C048A0
:1016F000844208D101218020FFF761F90021802078
:10170000FFF75DF931E0BB48844208D10121801523
:10171000FFF755F90021A015FFF751F925E0B6486C
:10172000844209D101210804FFF73CF900214FF45C
:101730008030FFF737F918E0B048844209D1012121
:101740004804FFF72FF900214FF40030FFF72AF982
:101750000BE0AB48844208D101218804FFF722F94D
:1017600000214FF48020FFF71DF910BD00220288F0
:10177000944B98420ED0994B98420BD0B0F1804FC9
:1017800008D0914B984205D0904B984202D0904B94
:10179000984204D14FF68F731A404B881A438D4BF1
:1017A000984207D08C4B984204D04FF6FF431A4022
:1017B000CB881A4302808B8883850B880385814BF5
:1017C00098420BD0854B984208D08B4B984205D05D
:1017D0008A4B984202D08A4B984201D10B7A0386F9
:1017E00001238382704770B5002400220023058CFA
:1017F0004FF6FE7635400584028C8388048B4FF6C5
:101800008F752C40B51E2C400D882C43751E2A4028
:101810000D892A434D882A436A4DA8420BD06F4D4B
:10182000A84208D0744DA84205D0744DA84202D0F9
:10183000734DA84213D14FF6F7752A404D892A43BC
:101840004FF6FB752A408D882A434FF6FF652B40E3
:101850004FF6FF552B408D892B43CD892B43838039
:101860000483CD888586028470BD70B50024002273
:101870000023058C4FF6EF7635400584028C838873
:10188000048B48F6FF752C404FF6FF452C400D8821
:101890004FF6FF7606EA05252C434FF6DF752A4002
:1018A0000D8906EA05152A434D8806EA05152A43DF
:1018B000444DA84202D0494DA8421DD14FF67F7534
:1018C0002A404D894FF6FF7606EA05152A434FF662
:1018D000BF752A408D8806EA05152A434FF6FF3565
:1018E0002B404FF2FF752B408D8906EA85052B436F
:1018F000CD8906EA85052B4383800483CD8805873F
:10190000028470BD70B5002400220023058C4FF6C0
:10191000FF6635400584028C8388848B4FF68F7573
:101920002C404FF6FC752C400D882C434FF6FF558C
:101930002A400D894FF6FF7606EA05252A434D8891
:1019400006EA05252A431F4DA84202D0234DA8428E
:101950001DD14FF2FF752A404D894FF6FF7606EAFA
:1019600005252A434FF6FF352A408D8806EA0525CE
:101970002A434EF6FF752B404DF6FF752B408D899F
:1019800006EA05152B43CD8906EA05152B4383800E
:101990008483CD888587028470BD70B500220023C2
:1019A0000024058C4EF6FF7635400584038C848830
:1019B000828B48F6FF752A404FF6FF452A400D8876
:1019C00020E00000002C014000040040000800401E
:1019D000000C0040001000400014004000340140A2
:1019E000004C0140005001400054014000180040EC
:1019F000001C004000200040004001400044014025
:101A0000004801404FF6FF7606EA05252A434DF6C9
:101A1000FF752B400D8906EA05352B434D8806EAF4
:101A200005352B43FA4DA84202D0FA4DA84208D101
:101A30004BF6FF752C408D894FF6FF7606EA85152B
:101A40002C4384808283CD88A0F84050038470BDED
:101A5000828B4FF2FF331A408283828B4FF6FF73E3
:101A600003EA01231A4382837047F0B50C461546FA
:101A7000002200210026078C4EF6FF7C07EA0C07A7
:101A80000784828B018C4FF6FF7707EA043640F615
:101A9000FF473A404FF6FF7707EA05273A434FF6EC
:101AA000FF7707EA03373A43D94FB8420ED0D94FF0
:101AB000B8420BD0B0F1804F08D0D74FB84205D014
:101AC000D64FB84202D0D64FB84206D14DF6FF7776
:101AD000394046F48057394305E047F6FF5739400F
:101AE00044F48057394382830184F0BD828B4FF6E2
:101AF000F3731A408283828B0A4382837047F0B566
:101B00000C461546002200210026078C4FF6FF6C7C
:101B100007EA0C070784828B018C4FF6FF7707EAF0
:101B200004264FF60C773A404FF6FF7707EA031783
:101B30002F433A43B64FB8420ED0B64FB8420BD0FF
:101B4000B0F1804F08D0B44FB84205D0B34FB8427F
:101B500002D0B34FB84206D14FF6FF57394046F492
:101B60008077394305E04FF2FF57394044F48077DE
:101B7000394382830184F0BD028B4FF2FF331A4058
:101B80000283028B4FF6FF7303EA01231A43028399
:101B90007047F0B50C461546002200210026078C40
:101BA0004FF6EF7C07EA0C070784028B018C4FF697
:101BB000FF7707EA041640F6FF473A404FF6FF77F3
:101BC00007EA03373A434FF6FF7707EA05273A4318
:101BD0008F4FB8420ED08F4FB8420BD0B0F1804F2C
:101BE00008D08D4FB84205D08C4FB84202D08C4FF0
:101BF000B84206D14FF6DF77394046F01007394337
:101C000005E04FF65F77394044F01007394302830F
:101C10000184F0BD028B4FF6F3731A400283028BEE
:101C20000A4302837047F0B50C4615460022002196
:101C3000068C4FF6FE773E400684028B018C4FF6F1
:101C40000C7632407E1C06EA03162E433243704E59
:101C5000B0420ED06F4EB0420BD0B0F1804F08D0E2
:101C60006D4EB04205D06D4EB04202D06C4EB042C7
:101C700006D14FF6FD76314044F00106314305E0D0
:101C80004FF6F576314044F001063143028301847A
:101C9000F0BD70B505460C465D4885420ED05D48E6
:101CA00085420BD0B5F1804F08D05B48854205D006
:101CB0005A48854202D05A48854200D100E000BF10
:101CC000208850B92389A28861882846FFF7ABFF96
:101CD000E1882846FFF79EFF25E0208804280AD1E6
:101CE0002389A28861882846FFF753FFE1882846A8
:101CF000FFF742FF17E0208808280AD12389A2882D
:101D000061882846FFF7FBFEE1882846FFF7EEFED4
:101D100009E02389A28861882846FFF7A6FEE188AA
:101D20002846FFF795FE70BD2DE9F04105460C46AB
:101D300000260127608808B9022600E00026A08856
:101D4000012801D1022700E001272088A0B92389BA
:101D5000A28861882846FFF766FFE1882846FFF7DA
:101D600059FF23893A4631462846FFF712FFE1889A
:101D70002846FFF701FF13E02389A28861882846DF
:101D8000FFF707FFE1882846FFF7F6FE23893A466A
:101D900031462846FFF747FFE1882846FFF73AFF1C
:101DA000BDE8F0810A884B881A438B881A43CB8898
:101DB0001A430B891A434B891A438B891A43A0F89B
:101DC000442070474FF6FF71818000210180C1805F
:101DD0004180017270470021018041808180C18073
:101DE000018141818181C181704700210180418051
:101DF000012181800021C180018170470021018083
:101E000041808180C18001814181818170470000D2
:101E1000002C014000340140000400400008004054
:101E2000000C004021B1028842F00102028004E06F
:101E300002884FF6FE731A400280704731B1B0F845
:101E4000442042F40042A0F8442005E0B0F84420C9
:101E5000C2F30E02A0F8442070471AB183890B43E5
:101E6000838102E083898B4383817047818270473D
:101E700041EA0203A0F8483070471AB183890B4346
:101E8000838102E083898B438381704701894FF608
:101E9000F8721140018170470A46002101894FF60E
:101EA0008F73194011430181704730B504460D46C8
:101EB00029462046FFF7F0FF208940F007002081E7
:101EC00030BD2DE9F04104460D4616461F46602DF3
:101ED00006D13B46012231462046FFF75AFE05E077
:101EE0003B46012231462046FFF79DFE294620460B
:101EF000FFF7D2FF208940F007002081BDE8F08184
:101F000030B50C4600210189C9B24FF6FF7505EACC
:101F10000325154325432943018130BD2DE9F041B7
:101F200005460E4617469846002443463A46314633
:101F30002846FFF7E5FF2C894FF6F870044044F07F
:101F400007044FF68F70044044F070042C81BDE804
:101F5000F081F0B504460D4616461F463B46324614
:101F600029462046FFF7CCFF208940F4804020819D
:101F7000F0BD0185828270470A46002101884FF634
:101F80008F731940114301807047F0B50C46154618
:101F90001E460021002200230189028B038C4FF68C
:101FA000F877394021434FF6FC473A4040F2011799
:101FB0003A434FF6DD773B404FF6FF7707EA0617C7
:101FC0002F433B43018102830384F0BD0A46002175
:101FD000018B4FF68F7319401143018370470A46F6
:101FE0000021018B48F6FF7319404FF6FF7303EA97
:101FF00002231943018370470A460021818B4FF663
:102000008F7319401143818370470A460021818BE9
:1020100048F6FF7319404FF6FF7303EA0223194392
:102020008183704721B1028842F08002028004E07F
:1020300002884FF67F731A400280704721B1828870
:1020400042F00402828004E082884FF6FB731A405B
:102050008280704721B1828842F00802828004E0C9
:1020600082884FF6F7731A408280704721B18288C8
:1020700042F00102828004E082884FF6FE731A402B
:10208000828070470A460021018B4FF6F773194092
:102090001143018370470A460021018B4FF2FF7301
:1020A00019404FF6FF7303EA022319430183704777
:1020B0000A460021818B4FF6F77319401143818343
:1020C00070470A460021818B4FF2FF7319404FF68B
:1020D000FF7303EA02231943818370470A460021F4
:1020E000018B4FF6FB7319401143018370470A4679
:1020F0000021018B4FF6FF3319404FF6FF7303EABF
:1021000002231943018370470A460021818B4FF651
:10211000FB7319401143818370470A460021818B6C
:102120004FF6FF3319404FF6FF7303EA02231943BA
:10213000818370470A460021018B4FF67F73194057
:102140001143018370470A460021018BC1F30E0140
:102150004FF6FF7303EA02231943018370470A46CF
:102160000021818B4FF67F731940114381837047A3
:102170000A460021818BC1F30E014FF6FF7303EA7B
:1021800002231943818370470A460021018C4FF6D0
:10219000FD7319401143018470470A460021018CE8
:1021A0004FF6F77319401143018470470A46002126
:1021B000018C4FF6DF7319404FF6FF7303EA0213E9
:1021C0001943018470470A460021018C4FF67F7342
:1021D00019404FF6FF7303EA021319430184704755
:1021E0000A460021018C4FF6FF5319404FF6FF734A
:1021F00003EA02231943018470470A460021018C37
:102200004FF2FF7319404FF6FF7303EA022319439D
:10221000018470470A460021018C4DF6FF73194076
:102220004FF6FF7303EA023319430184704730B558
:10223000002301248C40A3B2048C9C430484048CAE
:1022400002FA01F5ADB22C43048430BD30B5002351
:1022500004248C40A3B2048C9C430484048C02FAB2
:1022600001F5ADB22C43048430BD70B503460020A7
:1022700000241846183001258D40ACB21D8CA543B2
:102280001D8409B1082909D100EB6100056825F01A
:10229000700505600568154305600EE00D1FC5F368
:1022A0004E052844056825F4E045056005684FF6AD
:1022B000FF7606EA02263543056070BD21B102882B
:1022C00042F00202028004E002884FF6FD731A40D9
:1022D0000280704721B1028842F00402028004E0CB
:1022E00002884FF6FB731A400280704721B1828842
:1022F00042F08002828004E082884FF67F731A40A9
:102300008280704702884FF6F7731A400280028875
:102310000A430280704782884FF68F731A4082808A
:1023200082880A438280704702894FF6F8731A4008
:10233000028102890A430281704702894FF67F7346
:102340001A40028102890A430281704781847047E2
:102350008185704781867047018770478187704704
:10236000A0F84010704702884FF6FF431A400280E1
:1023700002880A43028070470146888E70470146F2
:10238000088F70470146888F70470146B1F84000BA
:1023900070470146888C70470146088D7047024699
:1023A0000020138A0B4201D0012000E0002070477A
:1023B000CA430282704730B5024600200023002441
:1023C000158A05EA0103958905EA010413B10CB1E8
:1023D000012000E0002030BDCA43028270470000A7
:1023E00070B505460C46207818B90020F9490870E8
:1023F0002071F8480078052868D2DFE800F0030F64
:1024000047525A00F44805802079022805D100205F
:1024100001F0F7FB0120EF4908705BE060780128CC
:1024200033D1A078012830D1E07801282DD1EA48B5
:1024300000880A2809DBE84800884EF660218842B7
:1024400003DC0220E34908701FE0E3480088A0F5A0
:102450007F41FF390CD10121E048FEF77EF80120D1
:1024600001F0CFFB012020710020DA4908700CE058
:10247000D948008828B90220D6490870D649088072
:1024800003E000202071D349087023E0D24800887F
:1024900001F0DEFC012001F0B4FB0320CD490870FF
:1024A00018E001F0CBFC012802D10420C9490870D2
:1024B00010E04FF4FA7001F0FFFD012020710220BE
:1024C00001F09FFB0020C349087003E00020C149D0
:1024D000087000BF00BF70BD70B505460C4620787F
:1024E00018B90020BE490870E070BD480078052882
:1024F00039D2DFE800F0030A1B273200E078022817
:1025000002D10120B649087031E0284601F02BFDC8
:10251000B44908700846007820B90020B049087016
:10252000E07002E00220AE49087020E0AD4800787B
:1025300001F037FD01F01DFCAB4908600320A849FC
:10254000087014E001F015FCA7490968401A142826
:1025500002D30420A249087009E00120E0700020A5
:102560009F49087003E000209D49087000BF00BF2C
:1025700070BD70B505460C46207818B900209B49FF
:102580000870A07099480078052837D2DFE800F07D
:10259000030A18232E00A078022802D101209349B3
:1025A00008702FE0002001F01BFB142D04DD00203B
:1025B0008E490870A07002E002208C49087021E06A
:1025C000284601F036FD01F0D4FB8949086003205C
:1025D0008649087016E001F0CCFB85490968401A6D
:1025E000142802D30420814908700BE00120A07058
:1025F00001F0F6FA00207D49087003E000207B49D5
:10260000087000BF00BF70BD70B5044641F29B402A
:10261000844200DD0446962C00DA9624754844F284
:10262000A17101FB140042F2107190FBF1F085B230
:10263000284600F076FA284670BD70B505460E466D
:102640001446207818B900206B49087060706A48F9
:10265000007805284ED2DFE800F0030A1F2A450063
:102660006078022802D101206349087046E000200A
:102670006249088001F0A3FA41F28830854202DC09
:10268000B5F5FA7F04DA00205B490870607002E05B
:1026900002205949087031E02846FFF7B5FF01F0E4
:1026A00068FB5749086003205349087026E001F091
:1026B00060FB53490968401AC82812D301F059FB3E
:1026C0004F4908604D480088401C4C490880042050
:1026D00049490870494800881E2802DD002008701A
:1026E00060700BE00120607001F069FA002042493F
:1026F000087003E000204049087000BF00BF70BDB3
:1027000070B505460C462078022800D070BDE889D7
:1027100001F029FC092819D2DFE800F01805060E9F
:102720000F091008070000BF00BF00BF00BF2079DD
:10273000012800D120700CE000BF00BFE078012824
:1027400003D1A078012800D1207002E00120207080
:1027500000BF00BF2078022802D0002001F06FFAED
:1027600000BFD3E770B505460C4601F0BEFA01285C
:102770000BD1A8882989401AB0F5967F03DBA88879
:10278000B0F57A7F01DA00202070207801280CD083
:10279000607828B1A07818B1E07808B1207920B924
:1027A00001202070002001F04AFA70BD10B50446E7
:1027B00001F0BDFA012805D101F098FCE080E08825
:1027C00001F0F6F901F0A2FA012802D101F0D3FCE0
:1027D000A08010BD30000020460000200014014001
:1027E0002E0000203C000020380000202D0000209A
:1027F000340000208826C4052F000020440000205B
:102800004000002070B504460D468B480078012832
:102810000AD101F0AEFA2168401A022804D900203A
:1028200085490870022028702878022803D0824841
:102830000078012800D170BD01F08AFA012800D08B
:10284000F9E77E4894E84E004EC001F093F900EBA2
:1028500080004FF6FF7101EA4000208101F09EF9EF
:10286000E08101F091F9608101F07BF9A081287885
:1028700020B902206870A870E87014E020896F49C0
:102880000989884201D002206870A0896B49898932
:10289000884201D00220A870E0896849C98988422D
:1028A00001D00220E87001F0BCF901283BD1E08999
:1028B00001F059FB092828D2DFE800F0270506229D
:1028C000231C2417160000BF022028716089A0F580
:1028D0007F41FF3903D14FF6FE70608103E06089CC
:1028E00008B90120608113E000BF02202871002098
:1028F00060810DE0022028714FF6FF70608107E0D3
:1029000000BF00BF0120287102E00120287100BF34
:1029100000BF01204849087001F02BFA2060012116
:102920004748FDF71CFE00BF85E74FF4A060FEF7A7
:102930008BFA01F0EDFA00F0E6F84FF47A7001F04E
:1029400088F84FF4165000F00BFC01F0FFF801F08E
:102950006BFA01F0C0F925E000F0ADFB39493A48C7
:10296000FFF750FF3848FFF721FF36493648FFF799
:10297000F9FE34493448FFF7C3FE334AD188108941
:10298000304AFFF75AFE304988892E49FFF7F1FD9A
:102990002D49C8892B49FFF79FFD2B4948892949B3
:1029A000FFF71EFDD8E770B505460E462748B0F97B
:1029B0000000A84206D02548058025490D8000204A
:1029C00024490880701B04B2022C0FDA14F1020FA4
:1029D0000CDD2048B0F90000022807DA1D48B0F9E4
:1029E000000010F1020F01DD012070BD642C02DC3B
:1029F00014F1640F01DA0020F7E70A2C01DD0A2444
:102A000004E014F10A0F01DA6FF0090411480480A0
:102A10000F480088001B0E49088008460088FFF711
:102A2000F3FD0020E1E710B501F0EBFB0446204682
:102A300000F0C8F810BD0000480000208C02002003
:102A400000140140280000209C0200204C000020BF
:102A50004A0000204E000020704700BFFEE700BF84
:102A6000FEE700BFFEE700BFFEE770477047704714
:102A70007047000008B518208DF8030002208DF87B
:102A800002004020ADF8000069463648FDF7BAFC68
:102A900008BD00B587B0344800684FF49661B0FBBC
:102AA000F1F0401E80B2ADF814000020ADF8100027
:102AB000ADF81600ADF8120004A92C48FEF756FE3A
:102AC0006020ADF800000120ADF802000020ADF854
:102AD0000400ADF808000820ADF80A000020ADF8A9
:102AE000060069462148FEF77EFE08211F48FFF7D1
:102AF000C9FA01211D48FFF795FA01211B48FFF78C
:102B000091F907B000BD10B501210420FDF73DFF8C
:102B100001210820FDF72CFFFFF7ACFFFFF7B9FFFD
:102B200010BD42F21071884209DB0F4909684FF469
:102B30009662B1FBF2F10A310D4A11800CE00A49AC
:102B400009684FF49662B1FBF2F1414342F2107210
:102B5000B1FBF2F1064A118005490988034A343273
:102B600011807047000C0140000000200008004068
:102B700050000020F0B50B46FF24FF2509E010F8B7
:102B8000016B86EA05010D4E765C86EA04050C4E63
:102B9000745C1E00A3F10107FBB2F0D154701570F4
:102BA000F0BD024610780B78984205D150784B78EA
:102BB000984201D1012070470020FCE7520000201C
:102BC00052010020FA490870704770B505460C465E
:102BD0000520F849087005F18000F749487008465B
:102BE0008470C21C0321FFF7C5FF70BD10B503E060
:102BF00010F8013B01F8013B1300A2F10104E2B21D
:102C0000F6D110BD2DE9F041EB48C078EA4989784A
:102C100000EB012085B2E8484079E749097900EBEB
:102C2000012084B2012C01DB0A2C05DD03211020D8
:102C3000FFF7CBFFBDE8F081012D02DB28190B283F
:102C400004DD02211020FFF7C0FFF3E7DA488079A6
:102C50000930D8490978884204DD04211020FFF7A3
:102C6000B4FFE7E76006070E681E4FF6FF7101EA42
:102C70004006D24881193A46CF48C01DFFF7B6FF3B
:102C80000820CC490870CC4A921D0621901FFFF7FE
:102C900071FF00BFCEE770B5C748C078C6498978D4
:102CA00000EB012084B2012C01DB0B2C04DB0221A0
:102CB0000620FFF78AFF70BD601E4FF6FF7101EA24
:102CC0004005BE4841190222BB48001DFFF78EFF98
:102CD0000820B849087000BFEDE72DE9F041B6487B
:102CE000C078B549897800EB012086B2B2484079B6
:102CF000B149097900EB012085B2012D01DB0A2DD4
:102D000005DD03210846FFF760FFBDE8F081012ED5
:102D100002DB70190B2804DD02210320FFF755FFA9
:102D2000F3E76806040E701E4FF6FF7101EA4007D4
:102D3000A249C8192246A049C91CFFF757FF601DC8
:102D40009C49087003209C494870084684700346DB
:102D5000E01C1A18C1B21846FFF70CFF00BFD4E7F9
:102D60002DE9F0419448C0789349897800EB01201F
:102D700086B2914840799049097900EB012085B2EB
:102D8000012D01DB0A2D05DD03210420FFF71DFFC6
:102D9000BDE8F081012E02DB70190B2804DD022151
:102DA0000420FFF712FFF3E76806040E701E4FF6CB
:102DB000FF7101EA40078249C81922467E49C91CB1
:102DC000FFF714FF601D7B49087004207A494870A2
:102DD000084684700346E01C1A18C1B21846FFF773
:102DE000C9FE00BFD4E7F0B5054614461E464B1E8B
:102DF0004FEAE37C03EB5C7C4FEAEC0C0CF1010C3A
:102E000086F800C00027002200201BE02B5C13F096
:102E1000010F01D042F080024FEAE07C00EB5C7CC5
:102E20004FEAEC0CA0EBCC0CBCF1070F07D13B46F2
:102E300007F1010C0CF0FF07E254002200E05210F1
:102E4000431CD8B28842E1DB0B464FEAE17C01EB40
:102E50005C7C4FEAEC0CA1EBCC0C0CF0FF0018B141
:102E6000C0F107031A41E255F0BDF8B55248C078E9
:102E70005149897800EB012085B24F4840794E498D
:102E8000097900EB012084B2012C01DB0A2C04DD5E
:102E900003210220FFF799FEF8BD012D02DB28195E
:102EA0000B2804DD02210846FFF78FFEF4E7681EB9
:102EB00086B2E1B2434A90196B463F4AD21CFFF7F3
:102EC00092FF9DF80000401D3A49087002203A49DF
:102ED00048709DF8000088700B469DF80000C01CEB
:102EE0001A189DF80000C01CC1B21846FFF742FE38
:102EF00000BFD1E7F0B504460D4600262778002034
:102F000017E007F0010111547F104FEAE07C00EB5D
:102F10005C7C4FEAEC0CA0EBCC0CBCF1070F06D1AB
:102F2000711CC9B20E46A94200DDF0BDA75D411C6F
:102F3000C8B29842E5DB00BFF7E72DE9F0411E4833
:102F4000C0781D49897800EB012085B21A48407984
:102F50001949097900EB012084B2012C01DB0A2C0C
:102F600005DD03210F20FFF730FEBDE8F081012DC4
:102F700002DB28190B2804DD02210F20FFF725FEB4
:102F8000F3E70D488779681E86B2E3B20E488219CE
:102F900039460948C01DFFF7ADFF082005490870F4
:102FA000054A921D0621901FFFF7E4FD00BFDCE7F4
:102FB0005202002053020020E8020020D402002028
:102FC000C0020020B6020020AC02002070B5FA4812
:102FD000C078F949897800EB012086B2F64840793B
:102FE000F549097900EB012084B23CB1B4F57F4F7B
:102FF00004D003210520FFF7E8FD70BD012E01DBA1
:103000000B2E04DB02210520FFF7DFFDF5E7701E24
:1030100085B21CB90020E949485502E00120E74982
:1030200048550820E649087000BFE6E7F8B5E248D1
:10303000C078E149897800EB012085B2DE4840790B
:10304000DD49097900EB012084B2012C01DB0A2C57
:1030500004DD03210120FFF7B8FDF8BD012D02DBDF
:1030600028190B2804DD02210120FFF7AEFDF4E74B
:10307000681E86B2E1B2D14A90196B46CE4AD21C84
:10308000FFF7B1FE9DF80000401DCD4908700120FA
:10309000C94948709DF8000088700B469DF80000F3
:1030A000C01C1A189DF80000C01CC1B21846FFF7DA
:1030B00061FD00BFD1E710B500F08DFB00B910BD78
:1030C000BF49BD4800F06FFBBB480078BD49097897
:1030D000884203D0B848007800B13DE0B648407857
:1030E000052813D008DC01280DD0022814D00328AD
:1030F00018D004281FD112E0062816D00F2808D0B7
:10310000102818D114E0FFF791FF1AE0FFF75EFFD7
:1031100017E0FFF712FF14E0FFF7A7FE11E0FFF73B
:103120001FFE0EE0FFF7D9FD0BE0FFF7B4FD08E04E
:10313000FFF768FD05E0A04948780121FFF745FD4C
:1031400000BF00BF9C48007828B19D4801789A488C
:1031500000F001FBB3E700BF00F044FB00BFAEE7A7
:1031600070B5054649F64040B0FBF5F0C4B2022CFC
:1031700000DA0224284600F0D4FA204600F0E2F9F2
:1031800070BD2DE9F04780460E4614464FEA1449BB
:10319000A4B2B9F1000F09D0B9F1010F12D0B9F101
:1031A000030F1AD0B9F1040F35D125E014B1A019DD
:1031B0000B2802D90020BDE8F087601E85B27F4849
:1031C00047192AE014B1A0190B2801D90020F2E711
:1031D000601E85B27C4847191FE02CB1701E04EBBD
:1031E0006000401C0B2801D90020E4E7601E85B276
:1031F000764800EB450710E02CB1701E04EB600030
:10320000401C0B2801D90020D5E7601E85B270480C
:1032100000EB450701E00020CDE700BF324639460C
:103220004046FFF7E3FC0120C5E72DE9F047804663
:103230000E4614464FEA1449A4B2B9F1000F09D062
:10324000B9F1010F12D0B9F1030F1AD0B9F1040F7F
:1032500035D125E014B1A0190B2802D90020BDE812
:10326000F087601E85B2554847192AE014B1A019AD
:103270000B2801D90020F2E7601E85B25248471999
:103280001FE02CB1701E04EB6000401C0B2801D91C
:103290000020E4E7601E85B24C4800EB450710E0D3
:1032A0002CB1701E04EB6000401C0B2801D90020DB
:1032B000D5E7601E85B2464800EB450701E00020D7
:1032C000CDE700BF324641463846FFF78FFC01206C
:1032D000C5E7F0B50446254663B1002006E02F5C43
:1032E000461C8F55AE5D0E54861CF0B256008642C9
:1032F000F5DC08E0002004E014F810600E54461CD1
:10330000F0B29042F8DBF0BD2DE9F04781460E4661
:1033100014464FEA144AA4B2BAF1000F09D0BAF128
:10332000010F14D0BAF1030F1ED0BAF1040F37D138
:1033300028E014B1A0190B2802D90020BDE8F087BD
:10334000601E85B21D4847194FF000082AE014B1ED
:10335000A0190B2801D90020F0E7601E85B21A4899
:1033600047194FF000081DE014B1A0190B2801D92E
:103370000020E3E7601E85B2144800EB45074FF0DC
:1033800001080FE014B1A0190B2801D90020D5E7DE
:10339000601E85B20E4800EB45074FF0010801E0C2
:1033A0000020CBE700BF4346324639464846FFF788
:1033B00090FF0120C2E70000E8020020AC020020DC
:1033C0005302002052020020B6020020C00200205A
:1033D000D4020020F0B504461D468DB10020002324
:1033E0000AE0461CA65D275C46EA072621F8136022
:1033F000861CF0B25E1CF3B256008642F1DC08E097
:10340000002004E0265C21F81060461CF0B29042D7
:10341000F8DBF0BD2DE9F04781460E4614464FEA31
:10342000144AA4B2BAF1000F09D0BAF1010F14D0B6
:10343000BAF1030F1ED0BAF1040F37D128E014B14E
:10344000A0190B2802D90020BDE8F087601E85B2C4
:103450001C4847194FF000082AE014B1A0190B28A6
:1034600001D90020F0E7601E85B2174847194FF0D8
:1034700000081DE014B1A0190B2801D90020E3E7D2
:10348000601E85B2114800EB45074FF001080FE0C0
:1034900014B1A0190B2801D90020D5E7601E85B210
:1034A0000B4800EB45074FF0010801E00020CBE797
:1034B00000BF4346324649463846FFF78BFF01209E
:1034C000C2E70000AC020020B6020020C0020020CB
:1034D000D402002008B536208DF8000002208DF8B7
:1034E000010001208DF802008DF803006846FDF709
:1034F000B0FC08BD3EB5044604EB4400C0EBC4106C
:103500000121C1EB800080B2ADF804008F20ADF83E
:1035100000000020ADF806008DF80800ADF80200AC
:1035200069462148FEF722F901211F48FEF740FFB6
:10353000012211461C48FEF790FC00211A48FEF7B4
:1035400071FC3EBD10B50446782C00DD78240121C5
:103550001020FDF71AFAFFF7BDFF2046FFF7CAFF5C
:1035600010BD10B500211048FEF75CFC00210E488C
:10357000FEF7ECFE01210C48FEF754FC10BD10B51F
:1035800000210948FEF74EFC10BD10B50121064888
:10359000FEF711FF38B101210348FEF71DFFFFF7C9
:1035A000EEFF00F061F910BD0010004008B50420E6
:1035B000ADF8000018208DF8030002208DF80200FD
:1035C0006946C048FCF71EFF0820ADF80000042043
:1035D0008DF803006946BB48FCF714FF08BD1FB512
:1035E000044600940020ADF80400ADF80600ADF8E4
:1035F0000800ADF80C000C20ADF80A006946B2488E
:10360000FDF761FA012240F22441AF48FDF7F3FAD9
:10361000002240F22661AC48FDF7EDFA0121AA48EC
:10362000FDF7DDFA1FBD08B526208DF8000000204B
:103630008DF8010002208DF8020001208DF80300B2
:103640006846FDF706FC11208DF8000000208DF87B
:10365000010003208DF8020001208DF80300684668
:10366000FDF7F7FB08BD00B58BB09848FDF782FE6B
:103670009548001D009096480190102002908020EF
:103680000390002004908020059000200690079071
:1036900008904FF40050099000200A9069468B482A
:1036A000FDF70AFF012202218848FDF73CFF0122B5
:1036B00080218548FDF7C4FA00218448FDF727FFE3
:1036C00082481438FDF756FE7F48001D009081485F
:1036D0000190002002908020039000200490802020
:1036E0000590002006900790202008900002099085
:1036F00000200A90694675481438FDF7DDFE002267
:10370000022172481438FDF70EFF012240216E4855
:10371000FDF796FA01216D481438FDF7F8FE0BB05D
:1037200000BD10B5044601210846FDF714F901213A
:103730004804FDF72AF901210420FDF719F9FFF7E4
:1037400072FF2046FFF74BFFFFF78DFFFFF72EFFBD
:1037500000F0DFF810BD70B506460D4600BF5E48AC
:1037600000780028FBD101205B49087002215548F0
:10377000FCF7F3FE802D00DD8025002404E0305DA1
:1037800053490855601CC4B2AC42F8DB00214F48D5
:10379000FDF7BDFE29464D48FDF7CEFE01214B4801
:1037A000FDF7B5FE70BD70B506460D4647481438A6
:1037B000FDF7C4FEC0F180002870002404E04548F5
:1037C000005D3055601CC4B22878A042F7DC0020B0
:1037D0004249087070BD41480078012800D1704707
:1037E0000020FCE710B5002138481438FDF78FFEA3
:1037F000802136481438FDF79FFE012133481438E4
:10380000FDF785FE10BD10B540F224412E48FDF7AE
:10381000D7FA58B12C48FDF753FA2C481438FDF765
:103820008DFE2F490880FFF79CFE1CE040F22661C8
:103830002548FDF7C5FAB0B12A480088401C29493F
:1038400008800846008802280DDB00200880FFF76A
:10385000C9FF02211B48FCF782FE002240F22661CC
:103860001948FDF7C8F910BD10B518481438FDF710
:1038700065FE1D4908801A4800880988884207D1DA
:10388000002112481438FDF742FE01201349087048
:1038900010BD10B54FF00070FDF772FE80B14FF013
:1038A0000070FDF780FE00210848FDF730FE002083
:1038B00009490870012240F226610348FDF79BF98F
:1038C00010BD00000008014000440040800002409C
:1038D0000603002086030020540200205502002029
:1038E00058020020560200205A02002008B502208B
:1038F000ADF8000010208DF8030001208DF80200C3
:1039000069460848FCF77EFD02210648FCF727FEC1
:1039100008BD10B501210420FDF72AF8FFF7E6FFE6
:1039200010BD00000008014008B50F20ADF80000F0
:1039300000208DF8030001208DF8020069465E48E2
:10394000FCF760FD08BD00B591B05C48FDF712FDC5
:103950005B4806905B480790002008905020099033
:1039600000200A9080200B9040000C9080000D9069
:1039700020200E9000020F900020109006A94F48C2
:10398000FDF79AFD01214D48FDF7C1FD0020019092
:1039900001208DF8080000208DF8090003900490A4
:1039A00004208DF8140001A945484C38FDF7E1FAD0
:1039B0004FF44040FCF743FF032304220A21404810
:1039C0004C38FDF76EFB03231A460B213C484C385C
:1039D000FDF767FB032302220C2139484C38FDF721
:1039E00060FB032301220D2135484C38FDF759FBBC
:1039F000042133484C38FDF73DFB012130484C3859
:103A0000FDF744FB01212E484C38FDF7DEFA012179
:103A10002B484C38FDF7E4FA29484C38FDF7F7FA03
:103A200000BF27484C38FDF7F7FA0028F9D12448A1
:103A30004C38FDF7FBFA00BF21484C38FDF7FBFA84
:103A40000028F9D101211E484C38FDF786FB11B042
:103A500000BD70B5044601210220FCF77CFF012166
:103A6000C803FCF785FF01211020FCF781FFFFF759
:103A70005BFFFFF768FF144890FBF4F085B228461F
:103A800000F058F870BD10B501460024042900DC90
:103A900009B9002301E0481E83B21A4605E009482F
:103AA00030F812000444101D82B2502AF7DB1420B3
:103AB000B4FBF0F4A0B210BD001001405804024065
:103AC0004C3C01400604002040420F0010B588B075
:103AD0000446601E80B2ADF818004720ADF814000F
:103AE0000020ADF81A008DF81C00ADF8160005A9ED
:103AF0001548FDF73BFE6020ADF804000120ADF84D
:103B000006000020ADF80800ADF80C000820ADF864
:103B10000E000120ADF80A0001A90B48FDF763FE75
:103B200008210948FEF7AEFA01210748FEF77AF9A5
:103B300008B010BD10B5044601210220FCF725FF96
:103B40002046FFF7C3FF10BD000400400EB5454AF4
:103B500007CA8DE80700444A05216846FFF7D4FBF1
:103B60000EBD08B5404A01216846FFF753FCBDF879
:103B7000000008BD08B53C4A521C01216846FFF709
:103B800049FCBDF8000008BD08B5374A921C012168
:103B90006846FFF73FFCBDF8000008BD08B54FF0D0
:103BA000041201216846FFF735FCBDF8000008BD8E
:103BB00001B52E4A01216846FFF7A6FB08BD10B5E6
:103BC00004462B48008820F0080040EAC400284939
:103BD0000880264A521E01212548FFF795FB10BD9B
:103BE00010B504462248008820F0040040EA840012
:103BF0001F4908801D4A521E01211D48FFF784FB02
:103C000010BD10B504461A48008820F00300204378
:103C100017490880154A521E01211548FFF774FB09
:103C200010BD08B5104A121D01216846FFF7F2FBCE
:103C3000BDF8000008B1012008BD0020FCE738B540
:103C4000044600200090012C02D10120009001E0E8
:103C500000200090044A121D01216846FFF754FB22
:103C600038BD0000DC42000801000400020003002F
:103C70005C02002008B537208DF8000003208DF885
:103C800001008DF8020001208DF803006846FDF761
:103C9000E0F808BD0EB56320ADF8040040F29F5077
:103CA000ADF800000020ADF806008DF80800ADF872
:103CB000020069463948FDF759FD01213748FEF7F2
:103CC00077FB012211463548FEF7C7F8012133483A
:103CD000FEF7A8F80EBD10B501212020FCF755FE17
:103CE000FFF7C8FFFFF7D6FF10BD2D4800682D492C
:103CF0000968401A2C490988884205D32848006879
:103D000028490860012070470020FCE7244800682B
:103D100026490968401A26490988884205D320485F
:103D2000006822490860012070470020FCE71C4819
:103D3000006820490968401A1F490988884205D34C
:103D4000174800681B490860012070470020FCE705
:103D50001348006819490968401A194909888842B6
:103D600005D30F48006815490860012070470020FE
:103D7000FCE70B4800684000704710B50121074878
:103D8000FEF719FB40B101210448FEF725FB04486A
:103D90000068401C0249086010BD0000001400408B
:103DA00060020020680200206402002070020020EF
:103DB0006C020020780200207402002080020020A3
:103DC0007C02002008B532208DF8000001208DF81B
:103DD000010002208DF8020001208DF803006846E2
:103DE000FDF737F808BD0EB540F2E730ADF8040036
:103DF0004720ADF800000020ADF806008DF808005F
:103E0000ADF8020069462B48FDF7B0FC01212948B6
:103E1000FEF7CEFA012211462648FEF71EF80021D1
:103E20002448FDF7FFFF0EBD10B501210820FCF767
:103E3000ACFDFFF7C7FFFFF7D6FF10BD1E48008897
:103E400020B100201C490880012070470020FCE7B9
:103E500010B504461948046000211648FDF7E2FF3A
:103E600000211448FEF772FA01211248FDF7DAFF2B
:103E700001211348FCF771FB10BD10B501210D485D
:103E8000FEF799FAA0B101210A48FEF7A5FA0B48FE
:103E90000068401E094908600AD101210848FCF762
:103EA0005EFB00210348FDF7BDFF012002490880A9
:103EB00010BD0000000C0040880200208402002099
:103EC0000014014008B510208DF8030002208DF881
:103ED00002004FF6FF60ADF8000069467248FCF73B
:103EE00091FA4FF47F40ADF8000069466F48FCF747
:103EF00089FA01216C48FCF732FB4FF6FE616A48F3
:103F0000FCF72DFB4FF47F416848FCF728FB08BD08
:103F100010B501216020FCF72BFDFFF7D3FF10BD8A
:103F200010B500240AE0624A02EBC4029188604A9C
:103F300052F83400FCF713FB601CC4B2142CF2DB03
:103F400010BD70B504460CB9002070BD621E584B00
:103F500003EBC2029188621E53F83200FCF7F0FABC
:103F600005462846F1E70146092916D2DFE801F0A7
:103F7000150507090B0D0F11130001200FE002209A
:103F80000DE005200BE0062009E0082007E00720EF
:103F900005E0042003E0032001E0002000BF00BF93
:103FA000704710B50446092C36D2DFE804F0350519
:103FB000121E2A061F13070000BF00BF4FF4007136
:103FC0003A48FCF7CCFA4FF480713848FCF7C7FA4E
:103FD0002DE000BF4FF400713448FCF7BEFA4FF4F7
:103FE00080713248FCF7BBFA21E000BF4FF400714A
:103FF0002E48FCF7B4FA4FF480712C48FCF7ADFA68
:1040000015E04FF400712948FCF7A9FA4FF48071CC
:104010002648FCF7A4FA0AE04FF400712348FCF7A5
:104020009EFA4FF480712148FCF799FA00BF00BF57
:1040300010BD10B504461F480088A04210D01D488E
:10404000008868B11B4A1288521E194B03EBC2024A
:104050009188184A1288521E53F83200FCF77FFAF2
:104060001448048054B1621E114B03EBC2029188C4
:10407000621E53F83200FCF770FA01E0FFF750FFC0
:1040800010BD10B50446142C00DD10BD54B1601EE7
:1040900084B2074A02EBC4029188054A52F8340000
:1040A000FCF75DFA00BFF0E7001401400018014082
:1040B000E84200088A02002001B5BDF8001001EBBB
:1040C00041018900881F00BF411E0800FCD108BDC6
:1040D00001B503E04FF47A70FFF7EEFFBDF8000082
:1040E000411E89B200910028F4D108BD2DE9FC41A0
:1040F0000120FFF7C8FCADF800000220FFF7C3FC69
:10410000ADF802000320FFF7BEFCADF80400002468
:1041100007E03DF8140040F6FA71884200DA02E048
:10412000641C032CF5D300BF032C00D3022424B15C
:10413000012C05D0022C09D105E04FF4D47505E01F
:1041400040F2DF2502E04FF4D76500BF00BF3DF825
:104150001400684300EB4000070B3DF8140068436F
:10416000532148434FF47A11B0FBF1F807EB0806EE
:10417000B0B2BDE8FC812DE9F04140F65A2504209B
:10418000FFF781FC044604FB05F000EB4000070B41
:1041900004FB05F0532148434FF47A11B0FBF1F8CA
:1041A00007EB080000F14606B0B2BDE8F081000060
:1041B00008B510208DF8030002208DF802000420BD
:1041C000ADF8000069461B48FCF71CF948208DF843
:1041D000030002208DF802004FF47060ADF800007B
:1041E00069461548FCF70EF904211248FCF7B7F9A7
:1041F00008BD10B501210C20FCF7BAFBFFF7D8FF72
:1042000010BD70B54FF6FF752C4600BF0A48FCF78D
:1042100093F90446C5F30324A54204D0254605209E
:10422000FFF756FF00E000E0F0E700BFC4F10F0029
:10423000C0B270BD000C014000080140064C074DA3
:1042400006E0E06840F0010394E807009847103466
:10425000AC42F6D3FBF770FF88430008A843000880
:1042600070B501EB020410F8015B15F0070301D1F2
:1042700010F8013B2A1106D110F8012B03E010F8C9
:10428000016B01F8016B5B1EF9D12B0705D40023EC
:10429000521E0FD401F8013BFAE710F8013B02F17E
:1042A0000202A1EB030303E013F8015B01F8015BD9
:1042B000521EF9D5A142D6D3002070BD02E008C835
:1042C000121F08C1002AFAD170477047002001E090
:1042D00001C1121F002AFBD170470000000032000C
:1042E0000A000100000000000014014080000000EE
:1042F00000140140400000000014014020000000B4
:1043000000140140100000000014014008000000EB
:1043100000140140040000000014014002000000ED
:104320000014014000800000001401400040000023
:1043300000140140002000000014014000100000A3
:1043400000140140000800000014014000040000B7
:10435000001401400002000000180140008000002D
:10436000001801400040000000180140002000003B
:104370000018014000100000001801400008000073
:104380000018014000040000A843000800000020BD
:104390008C02000060420008F44400088C020020F7
:1043A0001C060000CC4200081184A24A04680901DE
:1043B000020304060708090C69102E02040608010E
:1043C0000101262808C1814001C0804104690C29EF
:1043D00008E918A91C091A30091638093660092E8F
:1043E00070092F6000FF00C0C101C30302C2C606EE
:1043F00007C705C5C404CC0C0DCD0FCFCE0E0ACA1D
:10440000CB0BC90908C8D81819D91BDBDA1A1EDE6C
:10441000DF1FDD1D1CDC14D4D515D71716D6D2121C
:1044200013D311D1D010F03031F133F3F23236F62C
:10443000F737F53534F43CFCFD3DFF3F3EFEFA3ADC
:104440003BFB39F9F83828E8E929EB2B2AEAEE2E6C
:104450002FEF2DEDEC2CE42425E527E7E62622E2DC
:10446000E323E12120E0A06061A163A3A26266A62C
:10447000A767A56564A46CACAD6DAF6F6EAEAA6A9C
:104480006BAB69A9A86878B8B979BB7B7ABABE7EEC
:104490007FBF7DBDBC7CB47475B577B7B67672B29C
:1044A000B373B17170B0509091519353529296562C
:1044B0005797559594549C5C5D9D5F9F9E5E5A9A5C
:1044C0009B5B99595898884849894B8B8A4A4E8EEC
:1044D0008F4F8D4D4C8C448485458747468682425C
:1044E0004383418180031140015AF41372647219AD
:0444F000F20A0000CC
:0400000508000131BD
:00000001FF
